{
  "contractName": "Lottery",
  "abi": [
    {
      "inputs": [],
      "stateMutability": "nonpayable",
      "type": "constructor"
    },
    {
      "anonymous": false,
      "inputs": [
        {
          "indexed": false,
          "internalType": "uint256",
          "name": "index",
          "type": "uint256"
        },
        {
          "indexed": false,
          "internalType": "address",
          "name": "bettor",
          "type": "address"
        },
        {
          "indexed": false,
          "internalType": "uint256",
          "name": "amount",
          "type": "uint256"
        },
        {
          "indexed": false,
          "internalType": "bytes1",
          "name": "challenges",
          "type": "bytes1"
        },
        {
          "indexed": false,
          "internalType": "uint256",
          "name": "answerBlockNumber",
          "type": "uint256"
        }
      ],
      "name": "BET",
      "type": "event"
    },
    {
      "anonymous": false,
      "inputs": [
        {
          "indexed": false,
          "internalType": "uint256",
          "name": "index",
          "type": "uint256"
        },
        {
          "indexed": false,
          "internalType": "address",
          "name": "bettor",
          "type": "address"
        },
        {
          "indexed": false,
          "internalType": "uint256",
          "name": "amount",
          "type": "uint256"
        },
        {
          "indexed": false,
          "internalType": "bytes1",
          "name": "challenges",
          "type": "bytes1"
        },
        {
          "indexed": false,
          "internalType": "bytes1",
          "name": "answer",
          "type": "bytes1"
        },
        {
          "indexed": false,
          "internalType": "uint256",
          "name": "answerBlockNumber",
          "type": "uint256"
        }
      ],
      "name": "DRAW",
      "type": "event"
    },
    {
      "anonymous": false,
      "inputs": [
        {
          "indexed": false,
          "internalType": "uint256",
          "name": "index",
          "type": "uint256"
        },
        {
          "indexed": false,
          "internalType": "address",
          "name": "bettor",
          "type": "address"
        },
        {
          "indexed": false,
          "internalType": "uint256",
          "name": "amount",
          "type": "uint256"
        },
        {
          "indexed": false,
          "internalType": "bytes1",
          "name": "challenges",
          "type": "bytes1"
        },
        {
          "indexed": false,
          "internalType": "bytes1",
          "name": "answer",
          "type": "bytes1"
        },
        {
          "indexed": false,
          "internalType": "uint256",
          "name": "answerBlockNumber",
          "type": "uint256"
        }
      ],
      "name": "FAIL",
      "type": "event"
    },
    {
      "anonymous": false,
      "inputs": [
        {
          "indexed": false,
          "internalType": "uint256",
          "name": "index",
          "type": "uint256"
        },
        {
          "indexed": false,
          "internalType": "address",
          "name": "bettor",
          "type": "address"
        },
        {
          "indexed": false,
          "internalType": "uint256",
          "name": "amount",
          "type": "uint256"
        },
        {
          "indexed": false,
          "internalType": "bytes1",
          "name": "challenges",
          "type": "bytes1"
        },
        {
          "indexed": false,
          "internalType": "uint256",
          "name": "answerBlockNumber",
          "type": "uint256"
        }
      ],
      "name": "REFUND",
      "type": "event"
    },
    {
      "anonymous": false,
      "inputs": [
        {
          "indexed": false,
          "internalType": "uint256",
          "name": "index",
          "type": "uint256"
        },
        {
          "indexed": false,
          "internalType": "address",
          "name": "bettor",
          "type": "address"
        },
        {
          "indexed": false,
          "internalType": "uint256",
          "name": "amount",
          "type": "uint256"
        },
        {
          "indexed": false,
          "internalType": "bytes1",
          "name": "challenges",
          "type": "bytes1"
        },
        {
          "indexed": false,
          "internalType": "bytes1",
          "name": "answer",
          "type": "bytes1"
        },
        {
          "indexed": false,
          "internalType": "uint256",
          "name": "answerBlockNumber",
          "type": "uint256"
        }
      ],
      "name": "WIN",
      "type": "event"
    },
    {
      "inputs": [],
      "name": "answerForTest",
      "outputs": [
        {
          "internalType": "bytes32",
          "name": "",
          "type": "bytes32"
        }
      ],
      "stateMutability": "view",
      "type": "function",
      "constant": true
    },
    {
      "inputs": [],
      "name": "owner",
      "outputs": [
        {
          "internalType": "address payable",
          "name": "",
          "type": "address"
        }
      ],
      "stateMutability": "view",
      "type": "function",
      "constant": true
    },
    {
      "inputs": [],
      "name": "getSomeValue",
      "outputs": [
        {
          "internalType": "uint256",
          "name": "value",
          "type": "uint256"
        }
      ],
      "stateMutability": "pure",
      "type": "function",
      "constant": true
    },
    {
      "inputs": [],
      "name": "getPot",
      "outputs": [
        {
          "internalType": "uint256",
          "name": "pot",
          "type": "uint256"
        }
      ],
      "stateMutability": "view",
      "type": "function",
      "constant": true
    },
    {
      "inputs": [
        {
          "internalType": "bytes1",
          "name": "challenges",
          "type": "bytes1"
        }
      ],
      "name": "Bet_Distribute",
      "outputs": [
        {
          "internalType": "bool",
          "name": "result",
          "type": "bool"
        }
      ],
      "stateMutability": "payable",
      "type": "function",
      "payable": true
    },
    {
      "inputs": [
        {
          "internalType": "bytes1",
          "name": "challenges",
          "type": "bytes1"
        }
      ],
      "name": "Bet",
      "outputs": [
        {
          "internalType": "bool",
          "name": "result",
          "type": "bool"
        }
      ],
      "stateMutability": "payable",
      "type": "function",
      "payable": true
    },
    {
      "inputs": [],
      "name": "Distribute",
      "outputs": [],
      "stateMutability": "nonpayable",
      "type": "function"
    },
    {
      "inputs": [
        {
          "internalType": "bytes32",
          "name": "answer",
          "type": "bytes32"
        }
      ],
      "name": "SetTestMode",
      "outputs": [
        {
          "internalType": "bool",
          "name": "result",
          "type": "bool"
        }
      ],
      "stateMutability": "nonpayable",
      "type": "function"
    },
    {
      "inputs": [
        {
          "internalType": "bytes1",
          "name": "challenges",
          "type": "bytes1"
        },
        {
          "internalType": "bytes32",
          "name": "answer",
          "type": "bytes32"
        }
      ],
      "name": "CompareNumber",
      "outputs": [
        {
          "internalType": "enum Lottery.BettingResult",
          "name": "",
          "type": "uint8"
        }
      ],
      "stateMutability": "pure",
      "type": "function",
      "constant": true
    },
    {
      "inputs": [
        {
          "internalType": "uint256",
          "name": "index",
          "type": "uint256"
        }
      ],
      "name": "getBetInfo",
      "outputs": [
        {
          "internalType": "uint256",
          "name": "answerBlockNumber",
          "type": "uint256"
        },
        {
          "internalType": "address",
          "name": "bettor",
          "type": "address"
        },
        {
          "internalType": "bytes1",
          "name": "challenges",
          "type": "bytes1"
        }
      ],
      "stateMutability": "view",
      "type": "function",
      "constant": true
    }
  ],
  "bytecode": "0x60806040526001600660006101000a81548160ff02191690831515021790555034801561002b57600080fd5b50336000806101000a81548173ffffffffffffffffffffffffffffffffffffffff021916908373ffffffffffffffffffffffffffffffffffffffff1602179055506119db8061007b6000396000f3fe6080604052600436106100915760003560e01c806384f7e4f01161005957806384f7e4f0146101915780638da5cb5b146101bc578063a40674b7146101e7578063d850714f14610212578063ff64c1941461024257610091565b8063403c9fa81461009657806346b74e8a146100c15780636a78ca47146100fe57806379141f801461013b5780637c32ae1b1461017a575b600080fd5b3480156100a257600080fd5b506100ab610272565b6040516100b89190611158565b60405180910390f35b3480156100cd57600080fd5b506100e860048036038101906100e39190611206565b61027c565b6040516100f591906112bd565b60405180910390f35b34801561010a57600080fd5b50610125600480360381019061012091906112d8565b610565565b6040516101329190611320565b60405180910390f35b34801561014757600080fd5b50610162600480360381019061015d9190611367565b610606565b604051610171939291906113e4565b60405180910390f35b34801561018657600080fd5b5061018f610704565b005b34801561019d57600080fd5b506101a6610c45565b6040516101b3919061142a565b60405180910390f35b3480156101c857600080fd5b506101d1610c4b565b6040516101de9190611466565b60405180910390f35b3480156101f357600080fd5b506101fc610c6f565b6040516102099190611158565b60405180910390f35b61022c60048036038101906102279190611481565b610c78565b6040516102399190611320565b60405180910390f35b61025c60048036038101906102579190611481565b610c95565b6040516102699190611320565b60405180910390f35b6000600554905090565b600080839050600084905060008460006020811061029d5761029c6114ae565b5b1a60f81b90506000856000602081106102b9576102b86114ae565b5b1a60f81b90506004847effffffffffffffffffffffffffffffffffffffffffffffffffffffffffffff1916901c93506004847effffffffffffffffffffffffffffffffffffffffffffffffffffffffffffff1916901b93506004827effffffffffffffffffffffffffffffffffffffffffffffffffffffffffffff1916901c91506004827effffffffffffffffffffffffffffffffffffffffffffffffffffffffffffff1916901b91506004837effffffffffffffffffffffffffffffffffffffffffffffffffffffffffffff1916901b92506004837effffffffffffffffffffffffffffffffffffffffffffffffffffffffffffff1916901c92506004817effffffffffffffffffffffffffffffffffffffffffffffffffffffffffffff1916901b90506004817effffffffffffffffffffffffffffffffffffffffffffffffffffffffffffff1916901c9050837effffffffffffffffffffffffffffffffffffffffffffffffffffffffffffff1916827effffffffffffffffffffffffffffffffffffffffffffffffffffffffffffff191614801561049d5750827effffffffffffffffffffffffffffffffffffffffffffffffffffffffffffff1916817effffffffffffffffffffffffffffffffffffffffffffffffffffffffffffff1916145b156104af57600194505050505061055f565b837effffffffffffffffffffffffffffffffffffffffffffffffffffffffffffff1916827effffffffffffffffffffffffffffffffffffffffffffffffffffffffffffff191614806105445750827effffffffffffffffffffffffffffffffffffffffffffffffffffffffffffff1916817effffffffffffffffffffffffffffffffffffffffffffffffffffffffffffff1916145b1561055657600294505050505061055f565b60009450505050505b92915050565b60008060009054906101000a900473ffffffffffffffffffffffffffffffffffffffff1673ffffffffffffffffffffffffffffffffffffffff163373ffffffffffffffffffffffffffffffffffffffff16146105f6576040517f08c379a00000000000000000000000000000000000000000000000000000000081526004016105ed90611560565b60405180910390fd5b8160078190555060019050919050565b60008060008060026000868152602001908152602001600020604051806060016040529081600082015481526020016001820160009054906101000a900473ffffffffffffffffffffffffffffffffffffffff1673ffffffffffffffffffffffffffffffffffffffff1673ffffffffffffffffffffffffffffffffffffffff1681526020016001820160149054906101000a900460f81b7effffffffffffffffffffffffffffffffffffffffffffffffffffffffffffff19167effffffffffffffffffffffffffffffffffffffffffffffffffffffffffffff1916815250509050806000015193508060200151925080604001519150509193909250565b60008061070f6110e6565b60008060035494505b600454851015610c375760026000868152602001908152602001600020604051806060016040529081600082015481526020016001820160009054906101000a900473ffffffffffffffffffffffffffffffffffffffff1673ffffffffffffffffffffffffffffffffffffffff1673ffffffffffffffffffffffffffffffffffffffff1681526020016001820160149054906101000a900460f81b7effffffffffffffffffffffffffffffffffffffffffffffffffffffffffffff19167effffffffffffffffffffffffffffffffffffffffffffffffffffffffffffff191681525050925061080a8360000151610d8a565b9150600060028111156108205761081f611246565b5b82600281111561083357610832611246565b5b03610b145760006108478460000151610dec565b905061085784604001518261027c565b91506001600281111561086d5761086c611246565b5b8260028111156108805761087f611246565b5b0361096e576611c37937e0800060055461089a91906115af565b600160003373ffffffffffffffffffffffffffffffffffffffff1673ffffffffffffffffffffffffffffffffffffffff168152602001908152602001600020819055506108ff84602001516611c37937e080006005546108fa91906115af565b610e14565b945060006005819055507f8219079e2d6c1192fb0ff7f78e6faaf5528ad6687e69749205d87bd4b156912b8685602001518787604001518560006020811061094a576109496114ae565b5b1a60f81b896000015160405161096596959493929190611642565b60405180910390a15b6000600281111561098257610981611246565b5b82600281111561099557610994611246565b5b03610a20576611c37937e08000600560008282546109b391906115af565b925050819055507f3b19d607433249d2ebc766ae82ca3848e9c064f1febb5147bc6e5b21d0adebc586856020015160008760400151856000602081106109fc576109fb6114ae565b5b1a60f81b8960000151604051610a17969594939291906116de565b60405180910390a15b600280811115610a3357610a32611246565b5b826002811115610a4657610a45611246565b5b03610b12576611c37937e08000600160003373ffffffffffffffffffffffffffffffffffffffff1673ffffffffffffffffffffffffffffffffffffffff16815260200190815260200160002081905550610aab84602001516611c37937e08000610e14565b94507f72ec2e949e4fad9380f9d5db3e2ed0e71cf22c51d8d66424508bdc761a3f4b0e86856020015187876040015185600060208110610aee57610aed6114ae565b5b1a60f81b8960000151604051610b0996959493929190611642565b60405180910390a15b505b60016002811115610b2857610b27611246565b5b826002811115610b3b57610b3a611246565b5b0315610c3757600280811115610b5457610b53611246565b5b826002811115610b6757610b66611246565b5b03610c1a576611c37937e08000600160003373ffffffffffffffffffffffffffffffffffffffff1673ffffffffffffffffffffffffffffffffffffffff16815260200190815260200160002081905550610bcc83602001516611c37937e08000610e14565b93507f59c0185881271a0f53d43e6ab9310091408f9e0ff9ae2512613de800f26b8de48584602001518686604001518760000151604051610c1195949392919061173f565b60405180910390a15b610c2385610f2d565b508480610c2f90611792565b955050610718565b846003819055505050505050565b60075481565b60008054906101000a900473ffffffffffffffffffffffffffffffffffffffff1681565b60006005905090565b6000610c8382610c95565b50610c8c610704565b60019050919050565b60006611c37937e080003414610ce0576040517f08c379a0000000000000000000000000000000000000000000000000000000008152600401610cd790611826565b60405180910390fd5b610ce982610f91565b610d28576040517f08c379a0000000000000000000000000000000000000000000000000000000008152600401610d1f90611892565b60405180910390fd5b7f100791de9f40bf2d56ffa6dc5597d2fd0b2703ea70bc7548cd74c04f5d215ab76001600454610d5891906118b2565b333485600343610d6891906115af565b604051610d799594939291906118e6565b60405180910390a160019050919050565b60008143118015610da7575081610100610da491906115af565b43105b15610db55760009050610de7565b814311610dc55760019050610de7565b61010082610dd391906115af565b4310610de25760029050610de7565b600290505b919050565b6000600660009054906101000a900460ff16610e0a57600754610e0d565b81405b9050919050565b600081600160003373ffffffffffffffffffffffffffffffffffffffff1673ffffffffffffffffffffffffffffffffffffffff168152602001908152602001600020541015610e98576040517f08c379a0000000000000000000000000000000000000000000000000000000008152600401610e8f90611985565b60405180910390fd5b6000600160003373ffffffffffffffffffffffffffffffffffffffff1673ffffffffffffffffffffffffffffffffffffffff168152602001908152602001600020819055508273ffffffffffffffffffffffffffffffffffffffff166108fc839081150290604051600060405180830381858888f19350505050158015610f23573d6000803e3d6000fd5b5081905092915050565b6000600260008381526020019081526020016000206000808201600090556001820160006101000a81549073ffffffffffffffffffffffffffffffffffffffff02191690556001820160146101000a81549060ff0219169055505060019050919050565b6000610f9b6110e6565b33816020019073ffffffffffffffffffffffffffffffffffffffff16908173ffffffffffffffffffffffffffffffffffffffff1681525050600343610fe091906115af565b8160000181815250508281604001907effffffffffffffffffffffffffffffffffffffffffffffffffffffffffffff191690817effffffffffffffffffffffffffffffffffffffffffffffffffffffffffffff191681525050806002600060045481526020019081526020016000206000820151816000015560208201518160010160006101000a81548173ffffffffffffffffffffffffffffffffffffffff021916908373ffffffffffffffffffffffffffffffffffffffff16021790555060408201518160010160146101000a81548160ff021916908360f81c0217905550905050600460008154809291906110d790611792565b91905055506001915050919050565b604051806060016040528060008152602001600073ffffffffffffffffffffffffffffffffffffffff16815260200160007effffffffffffffffffffffffffffffffffffffffffffffffffffffffffffff191681525090565b6000819050919050565b6111528161113f565b82525050565b600060208201905061116d6000830184611149565b92915050565b600080fd5b60007fff0000000000000000000000000000000000000000000000000000000000000082169050919050565b6111ad81611178565b81146111b857600080fd5b50565b6000813590506111ca816111a4565b92915050565b6000819050919050565b6111e3816111d0565b81146111ee57600080fd5b50565b600081359050611200816111da565b92915050565b6000806040838503121561121d5761121c611173565b5b600061122b858286016111bb565b925050602061123c858286016111f1565b9150509250929050565b7f4e487b7100000000000000000000000000000000000000000000000000000000600052602160045260246000fd5b6003811061128657611285611246565b5b50565b600081905061129782611275565b919050565b60006112a782611289565b9050919050565b6112b78161129c565b82525050565b60006020820190506112d260008301846112ae565b92915050565b6000602082840312156112ee576112ed611173565b5b60006112fc848285016111f1565b91505092915050565b60008115159050919050565b61131a81611305565b82525050565b60006020820190506113356000830184611311565b92915050565b6113448161113f565b811461134f57600080fd5b50565b6000813590506113618161133b565b92915050565b60006020828403121561137d5761137c611173565b5b600061138b84828501611352565b91505092915050565b600073ffffffffffffffffffffffffffffffffffffffff82169050919050565b60006113bf82611394565b9050919050565b6113cf816113b4565b82525050565b6113de81611178565b82525050565b60006060820190506113f96000830186611149565b61140660208301856113c6565b61141360408301846113d5565b949350505050565b611424816111d0565b82525050565b600060208201905061143f600083018461141b565b92915050565b600061145082611394565b9050919050565b61146081611445565b82525050565b600060208201905061147b6000830184611457565b92915050565b60006020828403121561149757611496611173565b5b60006114a5848285016111bb565b91505092915050565b7f4e487b7100000000000000000000000000000000000000000000000000000000600052603260045260246000fd5b600082825260208201905092915050565b7f4f6e6c79206f776e65722063616e207365742074686520616e7377657220666f60008201527f722074657374206d6f6465000000000000000000000000000000000000000000602082015250565b600061154a602b836114dd565b9150611555826114ee565b604082019050919050565b600060208201905081810360008301526115798161153d565b9050919050565b7f4e487b7100000000000000000000000000000000000000000000000000000000600052601160045260246000fd5b60006115ba8261113f565b91506115c58361113f565b92508282019050808211156115dd576115dc611580565b5b92915050565b6000819050919050565b60006116086116036115fe84611394565b6115e3565b611394565b9050919050565b600061161a826115ed565b9050919050565b600061162c8261160f565b9050919050565b61163c81611621565b82525050565b600060c0820190506116576000830189611149565b6116646020830188611633565b6116716040830187611149565b61167e60608301866113d5565b61168b60808301856113d5565b61169860a0830184611149565b979650505050505050565b6000819050919050565b60006116c86116c36116be846116a3565b6115e3565b61113f565b9050919050565b6116d8816116ad565b82525050565b600060c0820190506116f36000830189611149565b6117006020830188611633565b61170d60408301876116cf565b61171a60608301866113d5565b61172760808301856113d5565b61173460a0830184611149565b979650505050505050565b600060a0820190506117546000830188611149565b6117616020830187611633565b61176e6040830186611149565b61177b60608301856113d5565b6117886080830184611149565b9695505050505050565b600061179d8261113f565b91507fffffffffffffffffffffffffffffffffffffffffffffffffffffffffffffffff82036117cf576117ce611580565b5b600182019050919050565b7f4e6f7420656e6f75676820455448000000000000000000000000000000000000600082015250565b6000611810600e836114dd565b915061181b826117da565b602082019050919050565b6000602082019050818103600083015261183f81611803565b9050919050565b7f6661696c20746f206164642061206e65772042657420496e666f000000000000600082015250565b600061187c601a836114dd565b915061188782611846565b602082019050919050565b600060208201905081810360008301526118ab8161186f565b9050919050565b60006118bd8261113f565b91506118c88361113f565b92508282039050818111156118e0576118df611580565b5b92915050565b600060a0820190506118fb6000830188611149565b61190860208301876113c6565b6119156040830186611149565b61192260608301856113d5565b61192f6080830184611149565b9695505050505050565b7f42616c616e6365206973206e6f7420656e6f7567680000000000000000000000600082015250565b600061196f6015836114dd565b915061197a82611939565b602082019050919050565b6000602082019050818103600083015261199e81611962565b905091905056fea26469706673582212207f843a7e174aa9f98b250d5b8c6a212ce2111af4920d9d36c9445066c2d2d41864736f6c63430008130033",
  "immutableReferences": {},
  "source": "// SPDX-License-Identifier: UNLICENSED\r\npragma solidity ^0.8.19;\r\n\r\ncontract Lottery {\r\n    struct BetInfo {\r\n        uint256 answerBlockNumber; //    \r\n        address payable bettor; //    \r\n        bytes1 challenges; //    ex)0xab..\r\n    }\r\n\r\n    address payable public owner; //   \r\n    mapping(address => uint) pending; //     \r\n    mapping(uint256 => BetInfo) private _bets; //    \r\n    uint256 private _head; // [0]\r\n    uint256 private _tail;\r\n\r\n    uint256 private _pot; // \r\n    bool private mode = true; // false :    , true :     \r\n    bytes32 public answerForTest; //   \r\n\r\n    uint256 internal constant BET_AMOUNT = 5 * 10 ** 15; //  0.005ETH \r\n    uint256 internal constant BET_BLOCK_INTERVAL = 3; // 3   \r\n    uint256 internal constant BLOCK_LIMIT = 256; //        256\r\n\r\n    enum BlockStatus {\r\n        //   \r\n        Checkable,\r\n        NotRevealed,\r\n        BlockLimitPassed\r\n    }\r\n    enum BettingResult {\r\n        //  \r\n        Fail,\r\n        Win,\r\n        Draw\r\n    }\r\n\r\n    //  \r\n    event BET(\r\n        uint256 index,\r\n        address bettor,\r\n        uint256 amount,\r\n        bytes1 challenges,\r\n        uint256 answerBlockNumber\r\n    );\r\n    event WIN(\r\n        uint256 index,\r\n        address bettor,\r\n        uint256 amount,\r\n        bytes1 challenges,\r\n        bytes1 answer,\r\n        uint256 answerBlockNumber\r\n    );\r\n    event FAIL(\r\n        uint256 index,\r\n        address bettor,\r\n        uint256 amount,\r\n        bytes1 challenges,\r\n        bytes1 answer,\r\n        uint256 answerBlockNumber\r\n    );\r\n    event DRAW(\r\n        uint256 index,\r\n        address bettor,\r\n        uint256 amount,\r\n        bytes1 challenges,\r\n        bytes1 answer,\r\n        uint256 answerBlockNumber\r\n    );\r\n    event REFUND(\r\n        uint256 index,\r\n        address bettor,\r\n        uint256 amount,\r\n        bytes1 challenges,\r\n        uint256 answerBlockNumber\r\n    );\r\n\r\n    constructor() {\r\n        owner = payable(msg.sender);\r\n    }\r\n\r\n    function getSomeValue() public pure returns (uint256 value) {\r\n        //test\r\n        return 5;\r\n    }\r\n\r\n    //   \r\n    function getPot() public view returns (uint256 pot) {\r\n        return _pot;\r\n    }\r\n\r\n    /**\r\n     * @dev     .  0.005 ETH  ,  1 byte  .\r\n     *      Distribute  .\r\n     * @param challenges   \r\n     * @return result     bool \r\n     */\r\n    function Bet_Distribute(\r\n        bytes1 challenges\r\n    ) public payable returns (bool result) {\r\n        Bet(challenges);\r\n        Distribute();\r\n\r\n        return true;\r\n    }\r\n\r\n    /**\r\n     * @dev   .  0.005 ETH   ,   1 byte  .\r\n     *      Distribute   .\r\n     * @param challenges    1byte \r\n     * @return result     bool \r\n     */\r\n    function Bet(bytes1 challenges) public payable returns (bool result) {\r\n        // ETH    \r\n        require(msg.value == BET_AMOUNT, \"Not enough ETH\");\r\n\r\n        //     \r\n        require(pushBetInfo(challenges), \"fail to add a new Bet Info\");\r\n\r\n        //   \r\n        emit BET(\r\n            _tail - 1, //   index\r\n            msg.sender,\r\n            msg.value,\r\n            challenges,\r\n            block.number + BET_BLOCK_INTERVAL\r\n        );\r\n\r\n        return true;\r\n    }\r\n\r\n    /**\r\n     * @dev      .\r\n     *   :  ,   :  ,   or    :   \r\n     */\r\n    function Distribute() public {\r\n        uint256 cur; //  \r\n        uint256 transferAmount; //  \r\n\r\n        BetInfo memory b;\r\n        BlockStatus currentBlockStatus;\r\n        BettingResult currentBettingResult;\r\n\r\n        // head 3 4 5 6 7 8 9 10 11 12 tail\r\n        for (cur = _head; cur < _tail; cur++) {\r\n            b = _bets[cur];\r\n            currentBlockStatus = getBlockState(b.answerBlockNumber);\r\n\r\n            // Checkable : block.number > answerBlockNumber && block.number  <  BLOCK_LIMIT + answerBlockNumber 1\r\n            if (currentBlockStatus == BlockStatus.Checkable) {\r\n                bytes32 answerBlockHash = getAnswerBlockHash( //  \r\n                    b.answerBlockNumber\r\n                );\r\n                currentBettingResult = CompareNumber(\r\n                    b.challenges,\r\n                    answerBlockHash\r\n                );\r\n\r\n                // if win,  \r\n                if (currentBettingResult == BettingResult.Win) {\r\n                    pending[msg.sender] = _pot + BET_AMOUNT; //   \r\n                    transferAmount = transferETH(b.bettor, _pot + BET_AMOUNT);\r\n\r\n                    // pot = 0\r\n                    _pot = 0;\r\n\r\n                    // emit WIN\r\n                    emit WIN(\r\n                        cur,\r\n                        b.bettor,\r\n                        transferAmount,\r\n                        b.challenges,\r\n                        bytes1(answerBlockHash[0]),\r\n                        b.answerBlockNumber\r\n                    );\r\n                }\r\n\r\n                // if fail,    \r\n                if (currentBettingResult == BettingResult.Fail) {\r\n                    // pot = pot + BET_AMOUNT\r\n                    _pot += BET_AMOUNT;\r\n\r\n                    // emit FAIL\r\n                    emit FAIL(\r\n                        cur,\r\n                        b.bettor,\r\n                        0,\r\n                        b.challenges,\r\n                        answerBlockHash[0],\r\n                        b.answerBlockNumber\r\n                    );\r\n                }\r\n\r\n                // if draw,   \r\n                if (currentBettingResult == BettingResult.Draw) {\r\n                    pending[msg.sender] = BET_AMOUNT; //   \r\n                    transferAmount = transferETH(b.bettor, BET_AMOUNT);\r\n\r\n                    // emit DRAW\r\n                    emit DRAW(\r\n                        cur,\r\n                        b.bettor,\r\n                        transferAmount,\r\n                        b.challenges,\r\n                        answerBlockHash[0],\r\n                        b.answerBlockNumber\r\n                    );\r\n                }\r\n            }\r\n\r\n            // Not Revealed : block.number <= answerBlockNumber 2\r\n            //     \r\n            if (currentBlockStatus == BlockStatus.NotRevealed) {\r\n                break;\r\n            }\r\n\r\n            // Block Limit Passed : block.number >= answerBlockNumber + BLOCK_LIMIT 3\r\n            //  256 ,    \r\n            if (currentBlockStatus == BlockStatus.BlockLimitPassed) {\r\n                pending[msg.sender] = BET_AMOUNT; //   \r\n                transferAmount = transferETH(b.bettor, BET_AMOUNT);\r\n\r\n                // emit refund\r\n                emit REFUND(\r\n                    cur,\r\n                    b.bettor,\r\n                    transferAmount,\r\n                    b.challenges,\r\n                    b.answerBlockNumber\r\n                );\r\n            }\r\n\r\n            popBetInfo(cur);\r\n        }\r\n        _head = cur;\r\n    }\r\n\r\n    function transferETH(\r\n        address payable addr,\r\n        uint256 amount\r\n    ) internal returns (uint256) {\r\n        //     \r\n        require(pending[msg.sender] >= amount, \"Balance is not enough\");\r\n\r\n        //    0 , re-entrancy  \r\n        pending[msg.sender] = 0;\r\n\r\n        //   \r\n        addr.transfer(amount);\r\n\r\n        return amount;\r\n    }\r\n\r\n    //  js   ,       \r\n    function SetTestMode(bytes32 answer) public returns (bool result) {\r\n        require(\r\n            msg.sender == owner,\r\n            \"Only owner can set the answer for test mode\"\r\n        );\r\n        answerForTest = answer;\r\n        return true;\r\n    }\r\n\r\n    //      \r\n    function getAnswerBlockHash(\r\n        uint256 answerBlockNumber\r\n    ) internal view returns (bytes32 answer) {\r\n        return mode ? blockhash(answerBlockNumber) : answerForTest;\r\n    }\r\n\r\n    /**\r\n     * @dev   .\r\n     * @param challenges  \r\n     * @param answer \r\n     * @return \r\n     */\r\n    function CompareNumber(\r\n        bytes1 challenges,\r\n        bytes32 answer\r\n    ) public pure returns (BettingResult) {\r\n        // challenges 0xab\r\n        // answer 0xab......ff 32 bytes\r\n\r\n        bytes1 c1 = challenges;\r\n        bytes1 c2 = challenges;\r\n\r\n        bytes1 a1 = answer[0];\r\n        bytes1 a2 = answer[0];\r\n\r\n        // Get first number\r\n        c1 = c1 >> 4; // 0xab -> 0x0a\r\n        c1 = c1 << 4; // 0x0a -> 0xa0\r\n\r\n        a1 = a1 >> 4;\r\n        a1 = a1 << 4;\r\n\r\n        // Get Second number\r\n        c2 = c2 << 4; // 0xab -> 0xb0\r\n        c2 = c2 >> 4; // 0xb0 -> 0x0b\r\n\r\n        a2 = a2 << 4;\r\n        a2 = a2 >> 4;\r\n\r\n        if (a1 == c1 && a2 == c2) {\r\n            return BettingResult.Win;\r\n        }\r\n\r\n        if (a1 == c1 || a2 == c2) {\r\n            return BettingResult.Draw;\r\n        }\r\n\r\n        return BettingResult.Fail;\r\n    }\r\n\r\n    function getBlockState(\r\n        uint256 answerBlockNumber\r\n    ) internal view returns (BlockStatus) {\r\n        if (\r\n            // Checkable 1\r\n            block.number > answerBlockNumber &&\r\n            block.number < BLOCK_LIMIT + answerBlockNumber\r\n        ) {\r\n            return BlockStatus.Checkable;\r\n        }\r\n\r\n        if (block.number <= answerBlockNumber) {\r\n            // NotRevealed 2\r\n            return BlockStatus.NotRevealed;\r\n        }\r\n\r\n        if (block.number >= answerBlockNumber + BLOCK_LIMIT) {\r\n            // BlockLimitPassed 3\r\n            return BlockStatus.BlockLimitPassed;\r\n        }\r\n\r\n        return BlockStatus.BlockLimitPassed;\r\n    }\r\n\r\n    //   \r\n    function getBetInfo(\r\n        uint256 index\r\n    )\r\n        public\r\n        view\r\n        returns (uint256 answerBlockNumber, address bettor, bytes1 challenges)\r\n    {\r\n        BetInfo memory b = _bets[index];\r\n        answerBlockNumber = b.answerBlockNumber;\r\n        bettor = b.bettor;\r\n        challenges = b.challenges;\r\n    }\r\n\r\n    function pushBetInfo(bytes1 challenges) internal returns (bool) {\r\n        BetInfo memory b;\r\n        b.bettor = payable(msg.sender); //    \r\n        b.answerBlockNumber = block.number + BET_BLOCK_INTERVAL; //    + 3\r\n        b.challenges = challenges;\r\n\r\n        _bets[_tail] = b;\r\n        _tail++;\r\n\r\n        return true;\r\n    }\r\n\r\n    function popBetInfo(uint256 index) internal returns (bool) {\r\n        delete _bets[index];\r\n        return true;\r\n    }\r\n}\r\n",
  "sourcePath": "C:\\Users\\binhao\\Desktop\\lottery\\smart_contract\\contracts\\Lottery.sol",
  "compiler": {
    "name": "solc",
    "version": "0.8.19+commit.7dd6d404.Emscripten.clang"
  },
  "schemaVersion": "3.4.13",
  "updatedAt": "2023-05-13T10:33:26.408Z",
  "networkType": "ethereum",
  "devdoc": {
    "kind": "dev",
    "methods": {
      "Bet(bytes1)": {
        "details": "  .  0.005 ETH   ,   1 byte  .      Distribute   .",
        "params": {
          "challenges": "   1byte "
        },
        "returns": {
          "result": "    bool "
        }
      },
      "Bet_Distribute(bytes1)": {
        "details": "    .  0.005 ETH  ,  1 byte  .      Distribute  .",
        "params": {
          "challenges": "  "
        },
        "returns": {
          "result": "    bool "
        }
      },
      "CompareNumber(bytes1,bytes32)": {
        "details": "  .",
        "params": {
          "answer": "",
          "challenges": " "
        },
        "returns": {
          "_0": ""
        }
      },
      "Distribute()": {
        "details": "     .   :  ,   :  ,   or    :   "
      }
    },
    "version": 1
  },
  "userdoc": {
    "kind": "user",
    "methods": {},
    "version": 1
  }
}